:020000040000fa
:080000000004040000000000f0
:020000040000fa
:10000800ce0400009e040000a4040000aa0400001e
:10001800b0040000ce040000ce040000ce040000ae
:10002800ce040000ce040000ce040000ce04000080
:10003800ce040000ce040000ce040000ce04000070
:10004800ce040000ce040000ce040000ce04000060
:10005800ce040000ce040000ce040000ce04000050
:10006800ce040000ce040000ce040000ce04000040
:10007800ce040000ce040000ce040000ce04000030
:10008800ce040000ce040000ce040000ce04000020
:10009800ce040000ce040000ce040000ce04000010
:1000a800ce040000ce040000ce040000ce04000000
:1000b800ce040000ce040000ce040000ce040000f0
:1000c800ce040000ce040000ce040000ce040000e0
:1000d800ce040000ce040000ce040000ce040000d0
:1000e800ce040000ce040000ce040000ce040000c0
:1000f800ce040000ce040000ce040000ce040000b0
:10010800ce040000ce040000ce040000ce0400009f
:10011800ce040000ce040000ce040000ce0400008f
:10012800ce040000ce040000ce040000ce0400007f
:10013800ce040000ce040000ce040000ce0400006f
:10014800ce040000ce040000ce040000ce0400005f
:10015800ce040000ce040000ce040000ce0400004f
:10016800ce040000ce040000ce040000ce0400003f
:10017800ce040000ce040000ce040000ce0400002f
:10018800ce040000ce040000ce040000ce0400001f
:10019800ce040000ce040000ce040000ce0400000f
:1001a800ce040000ce040000ce040000ce040000ff
:1001b800ce040000ce040000ce040000ce040000ef
:1001c800ce040000ce040000ce040000ce040000df
:1001d800ce040000ce040000ce040000ce040000cf
:1001e800ce040000ce040000ce040000ce040000bf
:0801f800ce040000ce0400005b
:020000040000fa
:10080000af8020002e7f24000e0188000000000031
:10081000000020000000e000020032000001200083
:10082000200288000c000700c0702000010020009a
:1008300011000700000020000000e000020032006c
:100840000000020000000000d204020000000000ce
:100850000040da000000fe004440a9000000200033
:100860000000e0000300320000002000a00188002a
:100870004440a80000000600910188008000780034
:100880000000eb0015003700e280400032a0b40009
:100890009101ba00e280400032a0b4009102ba0097
:1008a000e280400032a0b4000002eb00472bde00e3
:1008b000f507b200602ce10004003a000059eb009b
:1008c0008301e900fdff3e00040037006128e100dc
:1008d000010032000082eb00040007001101ba00a1
:1008e0000200e000e8ff3a00000006003159ba00bb
:1008f0008301e9000c0032002159ba008301e900ac
:10090000080032000400e00003003a00e2804000ea
:1009100032a0b400f5ff370011d9ba008301e90015
:10092000faff3a008100e800e180400032a0b40004
:1009300000000600c4060400000000000000fa00e9
:100940008020a900ffff37000000fa008060a900a6
:10095000ffff37000000fa008040a900ffff3700ca
:100960000000fa008080a900ffff37000000fa00b5
:100970008020a900ffff37000000fa008060a90076
:10098000ffff37000000fa008040a900ffff37009a
:100990000000fa008080a900ffff37000000fa0085
:0409a000ffff37001e
:020000040000fa
:1009a4000000fa0083e0a800018020000000eb00b2
:1009b400ab0007000002be00040278000440880077
:1009c400044080006102620004427800e04f52005b
:1009d4000b003200100007000002eb000440880006
:1009e40004408000840178000001eb0001802000b5
:1009f4000000eb00f5000700446c20000400010037
:100a040083e0a900000c040000000000040078004a
:100a14000080fa00000006001200fa001440800072
:100a240005002000340798004507980034408000f2
:100a34000500200054079800650798000002eb00a9
:100a4400040f7800490037003e039000ce03900065
:100a54001e0278004a22dd00cfa2de000602420018
:100a640087824a0034079800450798005e03900087
:100a7400ee0390001e0278004a22dd00cfa2de00c1
:100a84000602420087824a005407980065079800ce
:100a9400be0290004e0290008500780004007800a9
:100aa400810007000002eb00140798002b003700b8
:100ab4000002eb002407980020003700de029000bb
:100ac4006e0290008500780004007800640007003e
:100ad4000002be0074079800050f9800fe03900002
:100ae4000e0b9000be0290004e0290008701780029
:100af400060178008500780004007800b300070040
:100b04003e029000ce02900062024200e0824a005f
:100b140034079800450798005e029000ee029000aa
:100b240062024200e0824a00540798006507980078
:100b34002e0290000402e80024079800ae02900000
:100b4400f4032000848f5200dcff34007b00070094
:100b54001e0290000402e800140798001e02900090
:100b6400e70f5200d2ff34001e0fe8009e02780007
:100b7400444080004a22de00848f5200b2ff3900d4
:100b84000080fa00000006000e00fa00300798000a
:100b94004107980052079800630798000002eb0091
:100ba400040f780028003700de0290006e029000e7
:100bb4008500780004007800290007000002be00c8
:100bc40014079800250798009e0278006582420069
:100bd400be02900004824200ae429000054a7800b2
:100be4009e02780066824200be02900004824200a7
:100bf400be429000054a78009e0278006782420057
:100c0400be02900004824200ce429000054a780061
:100c14009e02780068824200be0290000482420074
:100c2400de429000054a78001e027800640f4200fc
:100c34005e029000ee02900062024200e0824a00ee
:100c440054079800650798004e0290004222dd0088
:100c54009e0f5200d4ff3e000080fa000000060000
:100c64000800fa0020079800310798002e0290002f
:100c7400044278000443780025032000864a780063
:100c84003e0290001402ba00040f78003e02900065
:100c94001482ba00140798001e02be000400be00ad
:100ca4000080fa00000006000600fa001007980011
:100cb4002107980024032000144278000482fb00da
:100cc400040f78001e029000044278000443780068
:100cd40025032000864a780024042400043b88006d
:100ce4002e029000ae029000050abb0054052000bd
:100cf400343b8800a40a2000343b880061e7a80044
:100d0400000000000000000000000000053b80001f
:100d14000400280004826200e00f5200fbff3a0046
:100d24001e02780004427800044378002503200062
:100d3400864a78000080fa00000006000000fa00ed
:100d440014002400043b880054052000343b880030
:100d5400a40a2000343b880061e7a80000000000da
:100d64000000000000000000053b80000400280093
:100d740004826200e00f5200fbff3a000080fa0098
:100d8400000006000000fa0034002400043b880040
:100d940054052000343b8800a40a2000343b88001a
:100da40061e7a8000000000000000000000000004f
:100db400053b80000400280004826200e00f52001a
:100dc400fbff3a000080fa00000006000800fa0069
:100dd400000f780011079800220798003307980045
:100de4001e027800044278000443780025032000a2
:100df400864a78001e029000be029000050abb00dd
:100e04001e029000ae029000058abb000080fa002a
:040e140000000600d4
:020000040000fa
:100e180000080000020000000200000000000000be
:100e2800020800000800000002000000000c00009a
:0c0e380020004c00002000000000000022
:00000001FF
